:020000040800F2
:1000000000800120C10D00083F0200084D020008D9
:1000100053020008590200085F02000800000000B7
:100020000000000000000000000000006502000861
:100030007302000800000000810200088F0200081F
:10004000090E0008090E0008090E0008090E000834
:10005000090E0008090E0008090E0008090E000824
:10006000090E0008090E0008090E0008090E000814
:10007000090E0008090E0008090E0008090E000804
:10008000090E0008090E0008090E0008090E0008F4
:10009000090E0008090E0008090E0008090E0008E4
:1000A000090E0008090E0008090E0008090E0008D4
:1000B000090E0008090E0008090E0008090E0008C4
:1000C000090E0008090E0008090E0008090E0008B4
:1000D000090E0008090E0008090E0008090E0008A4
:1000E000090E0008090E0008090E0008090E000894
:1000F000090E0008090E0008090E0008090E000884
:10010000090E0008090E0008090E0008090E000873
:10011000090E0008090E0008090E0008090E000863
:10012000090E0008090E0008090E0008090E000853
:10013000090E0008090E0008090E0008090E000843
:1001400000000000000000000000000000000000AF
:10015000090E0008090E0008090E0008090E000823
:10016000090E0008090E0008090E0008090E000813
:10017000090E0008090E0008090E0008090E000803
:04018000090E00085C
:1001840010B5054C237833B9044B13B10448AFF3CD
:1001940000800123237010BD0C000020000000002B
:1001A4002C10000808B5034B1BB103490348AFF3F7
:1001B400008008BD00000000100000202C10000882
:1001C40080B500AF00F036F90121012000F0F4F908
:1001D40000BF00F08DF90346002BFAD001223B2129
:1001E400022000F07FFA002000F00AFB0121022027
:1001F40000F0E2F900BF192000F052F90346012B88
:10020400F9D1002000F02CFA042000F055FA042063
:1002140000F03CFA012000F0D7FA022000F0B0FA16
:1002240000BF00F0C3FA0346022BFAD1002000F00D
:10023400CBFA00F02DFE00BF80BD80B400AF00BF3C
:10024400BD465DF8047B704780B400AFFEE780B420
:1002540000AFFEE780B400AFFEE780B400AFFEE776
:1002640080B400AF00BFBD465DF8047B704780B426
:1002740000AF00BFBD465DF8047B704780B400AF9B
:1002840000BFBD465DF8047B704780B400AF00BF7B
:10029400BD465DF8047B704780B582B000AF3B4635
:1002A400184600F05FFBC0233B6000233B7104232E
:1002B4007B710823BB710123FB713B461946074838
:1002C40000F0B4FA03233B603B461946044800F0AF
:1002D400ADFA00BF0837BD4680BD00BF000801402D
:1002E400000C014080B500AF0121064800F025F95B
:1002F4000121054800F021F90121044800F01DF90D
:1003040000BF80BD01001C0002001800030018009B
:1003140080B500AFFFF754FFFFF7E4FFFFF7BCFF22
:100324003B4B1B683B4AA2FB03235B0D9BB2013B87
:100334009AB2394B1A80384B1B881A4640F29921DD
:10034400364800F05DFB0021344800F085FB0021B5
:10035400324800F06CFB324800F033FB304B06228D
:100364001A702F4B00225A702D4B0022DA702C4B3E
:1003740001225A712A4A0021284800F083FB294BA4
:100384001B881A460021254800F07EFC012200212A
:10039400224800F0C5FC224A0221204800F072FBEA
:1003A400214B1B881A4602211C4800F06DFC0122D7
:1003B40002211A4800F0B4FC194A0421174800F03D
:1003C40061FB1A4B1B881A460421144800F05CFC9C
:1003D40001220421114800F0A3FC114A06210F4810
:1003E40000F050FB124B1B881A4606210B4800F004
:1003F4004BFC01220621094800F092FC0121074828
:1004040000F078FC0121054800F0C6FAFEE700BFC1
:1004140008000020819F5E16300000200004004088
:10042400280000200000002002000020040000201A
:100434000600002080B400AF184A136843F001039B
:10044400136000BF154B1B68C3F34003DBB2012BE1
:10045400F8D1124A53686FF30103536000BF0F4B86
:100464005B68C3F38103DBB2002BF8D10B4B1B6831
:100474000A4A23F0867323F480331360074B002267
:100484005A60064B00221A63044B4FF41F029A6011
:1004940000BFBD465DF8047B704700BF00100240FA
:1004A40080B485B000AF78600023FB737B681B0CBD
:1004B40003F1804303F504331A687B6803F01F03D8
:1004C400012101FA03F31A407B6803F01F030121A1
:1004D40001FA03F39A4202D00023FB7301E00123E3
:1004E400FB73FB7B18461437BD465DF8047B7047ED
:1004F40080B582B000AF00237B600023FB7002E074
:100504007B6801337B601120FFF7CAFF0346012B90
:1005140003D07B68B3F5405FF2D31120FFF7C0FF2F
:100524000346012B02D00023FB7001E00123FB7082
:10053400FB7818460837BD4680BD80B483B000AF51
:1005440078600B46FB70FB78012B16D17B681B0C83
:1005540003F1804303F5043319687B6803F01F0338
:1005640001229A407B681B0C03F1804303F504339A
:10057400184641EA0203036017E07B681B0C03F191
:10058400804303F5043319687B6803F01F030122D9
:1005940002FA03F3DA437B681B0C03F1804303F58F
:1005A4000433184601EA0203036000BF0C37BD465A
:1005B4005DF8047B7047000080B483B000AF03464D
:1005C4000A46FB711346BB71FB79042B3ED801A28A
:1005D40052F823F0ED05000801060008150600088E
:1005E400290600083D0600081C4ABB7903F00103F4
:1005F400D9B2136861F30003136028E0174ABB798A
:1006040003F00103D9B2136861F3104313601EE0D1
:10061400124ABB7903F00103D9B2136861F318637A
:10062400136014E00D4ABB7903F00103D9B2136AD5
:1006340061F3000313620AE0084ABB7903F0010383
:10064400D9B2536A61F30003536200E000BF00BFF4
:100654000C37BD465DF8047B704700BF00100240B4
:1006640080B483B000AF0346FB71074AFB7903F003
:100674000F03D9B2536861F30713536000BF0C37FB
:10068400BD465DF8047B70470010024080B483B01F
:1006940000AF0346FB71074AFB7903F00703D9B2A5
:1006A400536861F30A23536000BF0C37BD465DF8FD
:1006B400047B70470010024080B483B000AF03464F
:1006C400FB71074AFB7903F00703D9B2536861F35E
:1006D400CD23536000BF0C37BD465DF8047B7047E3
:1006E4000010024080B483B000AF0346FB710B4698
:1006F400BB7113467B71FB79002B0AD11F4A5368E7
:100704006FF3104353601D4A136B43F0007313637C
:1007140012E01A4A536843F480335360FB79012B87
:1007240005D1164A53686FF35143536004E0134AEA
:10073400536843F400335360104ABB7903F00F034A
:10074400D9B2536861F395435360BB791B110B4ACB
:1007540003F00303D9B2536861F35E735360074A2D
:100764007B7903F00103D9B2536861F3DF735360FB
:1007740000BF0C37BD465DF8047B70470010024093
:1007840080B483B000AF0346FB71074AFB7903F0E2
:100794000303D9B2536861F30103536000BF0C37FC
:1007A400BD465DF8047B70470010024080B400AF82
:1007B400044B5B68C3F38103DBB21846BD465DF8A6
:1007C400047B70470010024080B483B000AF03463E
:1007D400FB71FB79012B05D1084A536D43F03003BB
:1007E400536504E0054A536D6FF30513536500BF69
:1007F4000C37BD465DF8047B704700BF0010024013
:1008040080B483B000AF0346FB71074AFB7903F061
:100814000303D9B2536D61F30D33536500BF0C3735
:10082400BD465DF8047B70470010024080B485B07B
:1008340000AF786039603B681B683B813B689B79FB
:10084400032B02D100237B8130E03B689B79002B92
:1008540015D13B685B799BB203F00F037B813B6846
:100864005B79182B03D13A897B681A611EE03B68D7
:100874005B79282B1AD13A897B685A6116E03B6868
:100884009B791BB203F008031AB23B681B791BB2B5
:1008940003F004031BB213431AB23B68DB791BB2A7
:1008A40003F003031BB213431BB27B813B89DBB20E
:1008B400002B25D00023FB601FE03A89FB6842FA35
:1008C40003F303F00103002B14D07B681B68FA6860
:1008D40092000F2101FA02F2D2431A407B681A6097
:1008E4007B681B687989FA68920001FA02F21A435C
:1008F4007B681A60FB680133FB60FB68072BDCD95B
:100904003B89FF2B28D93B891B0A3B810023FB60D1
:100914001FE03A89FB6842FA03F303F00103002B5A
:1009240014D07B685B68FA6892000F2101FA02F226
:10093400D2431A407B685A607B685B687989FA689D
:10094400920001FA02F21A437B685A60FB68013391
:10095400FB60FB68072BDCD900BF1437BD465DF88C
:10096400047B704780B483B000AF78607B684FF637
:10097400FF721A607B6800229A717B6800221A71E8
:100984007B6804225A717B680122DA7100BF0C373C
:10099400BD465DF8047B704780B483B000AF7860D7
:1009A4000B46FB70FB7803F00103D9B27A68136835
:1009B40061F30003136000BF0C37BD465DF8047B90
:1009C400704780B483B000AF78607B6800221A70EF
:1009D4007B6800225A707B6800229A707B68002230
:1009E400DA707B6800221A717B6800225A717B6876
:1009F40000229A7100BF0C37BD465DF8047B704736
:100A040080B485B000AFF860B9607A60FB68BA68FA
:100A1400DA62FB687A689A62FA68536943F0010300
:100A2400536100BF1437BD465DF8047B704780B442
:100A340083B000AF78600B46FB70FB7803F00303D0
:100A4400D9B27A68136861F30923136000BF0C37C5
:100A5400BD465DF8047B704780B483B000AF786016
:100A64000B46FB70FB7803F00703D9B27A6813686E
:100A740061F30613136000BF0C37BD465DF8047BB9
:100A84007047000080B489B000AFF8600B467A600C
:100A9400FB720023FB830023BB8300237B83FB7A4D
:100AA4009BB208333B83FB7A9BB20933FB827B689E
:100AB4005B781A463B8B02FA03F3FB837B689B78D3
:100AC4001A46FB8A02FA03F3BB83FB685B68FA8A63
:100AD400012101FA02F2D2431A40FB685A60FB6812
:100AE4005A68BB8B1A43FB685A60FB685B683A8B95
:100AF400012101FA02F2D2431A40FB685A60FB68F2
:100B04005A68FB8B1A43FB685A60FB7A7B837B8BA6
:100B1400062B3DD801A252F823F000BF3D0B00087C
:100B2400950B0008530B0008950B0008690B00088F
:100B3400950B00087F0B00087B681B7803F0070304
:100B4400D9B2FA68936961F30613936121E07B6873
:100B54001B7803F00703D9B2FA68936961F30E3383
:100B6400936116E07B681B7803F00703D9B2FA6837
:100B7400D36961F30613D3610BE07B681B7803F040
:100B84000703D9B2FA68D36961F30E33D36100E085
:100B940000BFFB7A9BB25B009BB201333B83FB7AC1
:100BA4009BB25B009BB20333FB827B68DB781A4603
:100BB4003B8B02FA03F3FB837B681B791A46FB8A9F
:100BC40002FA03F3BB83FB681B6AFA8A012101FA68
:100BD40002F2D2431A40FB681A62FB681A6ABB8BA2
:100BE4001A43FB681A62FB681B6A3A8B012101FAFB
:100BF40002F2D2431A40FB681A62FB681A6AFB8B42
:100C04001A43FB681A62FB7A9BB25B003B83FB7A54
:100C140001339BB25B00FB827B685B791A46FB7AEB
:100C24005B0002FA03F3FB837B689B791A46FB7A29
:100C340001335B0002FA03F3BB83FB681B6AFA8A85
:100C4400012101FA02F2D2431A40FB681A62FB68DE
:100C54001A6ABB8B1A43FB681A62FB681B6A3A8BDD
:100C6400012101FA02F2D2431A40FB681A62FB68BE
:100C74001A6AFB8B1A43FB681A6200BF2437BD460D
:100C84005DF8047B704700BF80B487B000AFF860A4
:100C94000B467A60FB72FB7AFB82FB8A062B21D817
:100CA40001A252F823F000BFC90C0008E90C0008A7
:100CB400D10C0008E90C0008D90C0008E90C000864
:100CC400E10C0008FB687A685A630CE0FB687A68F8
:100CD4009A6308E0FB687A68DA6304E0FB687A6880
:100CE4001A6400E000BF00BF1C37BD465DF8047BFA
:100CF400704700BF80B483B000AF78600B46FB70D0
:100D0400FB7803F00103D9B27A68136861F3C7135F
:100D1400136000BF0C37BD465DF8047B70470000CC
:100D240080B485B000AF78600B46FB701346BB708F
:100D3400FB78FB81FB89062B38D801A252F823F0FB
:100D4400610D0008B10D0008750D0008B10D000813
:100D5400890D0008B10D00089D0D0008BB7803F053
:100D64000103D9B27A68936961F3C30393611EE006
:100D7400BB7803F00103D9B27A68936961F3CB239A
:100D8400936114E0BB7803F00103D9B27A68D369A4
:100D940061F3C303D3610AE0BB7803F00103D9B262
:100DA4007A68D36961F3CB23D36100E000BF00BF4D
:100DB4001437BD465DF8047B704700BF002103E093
:100DC4000B4B5B58435004310A480B4B42189A4270
:100DD400F6D30A4A02E0002342F8043B084B9A4245
:100DE400F9D300F011F800F0FBF8FFF791FA70471F
:100DF4005C100008000000200C0000200C00002003
:100E040034000020FEE7000080B400AF1E4BD3F88E
:100E140088301D4A43F47003C2F888301B4A1368B3
:100E240043F00103136000BF184B1B68C3F3400376
:100E3400DBB2012BF8D1154A53686FF301035360F9
:100E440000BF124B5B68C3F38103DBB2002BF8D104
:100E54000E4B1B680D4A23F0867323F48033136012
:100E64000A4B00225A60094B00221A63074B4FF4C5
:100E74001F029A60044B4FF000629A6000BFBD46A7
:100E84005DF8047B704700BF00ED00E000100240F5
:100E940080B588B000AF0023BB610023FB61002351
:100EA4007B6100233B610023FB600023BB60FFF7F1
:100EB4007DFC0346FB71FB79022B20D0022B69DCFD
:100EC400002B02D0012B16D064E03F4B5B6DC3F3C3
:100ED4004023DBB2002B0AD03B4B1B6BC3F34063B4
:100EE400DBB2002B03D0394B394A1A6056E0374B3A
:100EF400384A1A6052E0354B364A1A604EE0324B9B
:100F04005B68C3F30043DBB23B612F4B5B68C3F305
:100F14008343DBB2FB612C4B5B68C3F34173DBB2ED
:100F24007B617B69002B02D1FB690F2B06D17B69A6
:100F34001A01FB6913440133FB6102E0FB690233CC
:100F4400FB613B69002B06D1FB69234A02FB03F3D7
:100F54001E4A136022E01C4B5B68C3F34043DBB2C0
:100F6400002B10D0184B5B6DC3F30133DBB2BB61B4
:100F7400BB690233174AB2FBF3F3FA6902FB03F3CA
:100F8400124A13600AE0FB69124A02FB03F30F4A98
:100F9400136003E00D4B0F4A1A6000BF0A4B5B68F5
:100FA400C3F30313DBB2FB600C4AFB6813441B78E6
:100FB400BB60064B1A68BB6822FA03F3034A13604A
:100FC40000BF2037BD4680BD00100240080000204D
:100FD400006CDC0200127A0000093D004410000895
:100FE40070B50D4D0D4C641BA4100026A64209D10A
:100FF4000B4D0C4C00F018F8641BA4100026A642FC
:1010040005D170BD55F8043B98470136EEE755F815
:10101400043B98470136F2E75410000854100008C6
:101024005410000858100008F8B500BFF8BC08BCFC
:101034009E467047F8B500BFF8BC08BC9E46704792
:101044000000000000000000010203040607080974
:04105400A9010008E6
:041058008501000806
:0C105C004D01F900A600530000127A00BC
:0400000508000DC121
:00000001FF
